:100000000C943B040C9463040C9463040C946304FC
:100010000C9463040C9463040C9463040C946304C4
:100020000C9463040C9463040C9463040C946304B4
:100030000C9463040C9463040C9463040C946304A4
:100040000C942D180C9463040C94F0160C94CA169E
:100050000C9463040C9463040C9463040C94630484
:100060000C94CD130C9463040000000025002800BC
:100070002B0004E010021C07123732292D29252BF2
:100080003900010310E110031D07062E2C292D2E27
:100090002E373F0000021013800A298064022A04D0
:1000A0000000007F2B040000009F0F01809611804C
:1000B000FFB103012C2DB203012C2DB306012C2D11
:1000C000012C2DB40107C003A20284C101C5C202E4
:1000D0000A00C3028A2AC4028AEEC5010E20003635
:1000E00001C83A0105005EBCE2613FDD83C29C7E2F
:1000F00020A3FD1F419DC3217FFCA2401E5F01E3A1
:10010000BD3E6082DC237D9FC1421CFEA0E1BF5D3D
:100110000380DE3C62BEE0025CDF81633D7C22C086
:100120009E1D43A1FF4618FAA427799BC584DA389F
:1001300066E5BB5907DB856739BAE406581947A558
:10014000FB7826C49A653BD987045AB8E6A7F91B01
:1001500045C6987A24F8A6441A99C7257B3A64863E
:10016000D85B05E7B98CD2306EEDB3510F4E10F26B
:10017000AC2F7193CD114FADF3702ECC92D38D6F08
:1001800031B2EC0E50AFF1134DCE90722C6D33D1D5
:100190008F0C52B0EE326C8ED0530DEFB1F0AE4CEE
:1001A0001291CF2D73CA947628ABF517490856B42F
:1001B000EA6937D58B5709EBB536688AD495CB29D0
:1001C00077F4AA4816E9B7550B88D6346A2B759789
:1001D000C94A14F6A8742AC896154BA9F7B6E80AB6
:1001E00054D7896B3500000000003E5B4F5B3E3EFC
:1001F0006B4F6B3E1C3E7C3E1C183C7E3C181C57D3
:100200007D571C1C5E7F5E1C00183C1800FFE7C376
:10021000E7FF0018241800FFE7DBE7FF30483A0645
:100220000E2629792926407F050507407F05253FB1
:100230005A3CE73C5A7F3E1C1C08081C1C3E7F149D
:10024000227F22145F5F005F5F06097F017F0066E7
:1002500089956A606060606094A2FFA29408047E41
:10026000040810207E201008082A1C08081C2A08F0
:10027000081E101010100C1E0C1E0C30383E3830AA
:10028000060E3E0E06000000000000005F000000A9
:1002900007000700147F147F14242A7F2A122313D7
:1002A00008646236495620500008070300001C22EB
:1002B00041000041221C002A1C7F1C2A08083E081D
:1002C000080080703000080808080800006060001E
:1002D00020100804023E5149453E00427F40007212
:1002E000494949462141494D331814127F10274589
:1002F0004545393C4A4949314121110907364949A7
:100300004936464949291E000014000000403400C7
:10031000000008142241141414141400412214087B
:1003200002015909063E415D594E7C1211127C7F33
:10033000494949363E414141227F4141413E7F4941
:100340004949417F090909013E414151737F08082C
:10035000087F00417F41002040413F017F08142277
:10036000417F404040407F021C027F7F0408107F95
:100370003E4141413E7F090909063E4151215E7FD0
:1003800009192946264949493203017F01033F40A3
:1003900040403F1F2040201F3F4038403F6314082B
:1003A000146303047804036159494D43007F4141BC
:1003B000410204081020004141417F04020102046F
:1003C0004040404040000307080020545478407FDC
:1003D000284444383844444428384444287F385416
:1003E00054541800087E090218A4A49C787F0804BD
:1003F000047800447D40002040403D007F102844A8
:100400000000417F40007C047804787C0804047874
:100410003844444438FC1824241818242418FC7C3C
:1004200008040408485454542404043F44243C4021
:1004300040207C1C2040201C3C4030403C44281084
:1004400028444C9090907C4464544C4400083641BD
:10045000000000770000004136080002010204029B
:100460003C2623263C1EA1A161123A4040207A3846
:1004700054545559215555794122545478422155A7
:1004800054784020545579400C1E527212395555FB
:100490005559395454545939555454580000457CD1
:1004A000410002457D420001457C407D1211127DD4
:1004B000F0282528F07C545545002054547C547C69
:1004C0000A097F4932494949323A4444443A324A56
:1004D0004848303A4141217A3A42402078009DA074
:1004E000A07D3D4242423D3D4040403D3C24FF24F2
:1004F00024487E4943662B2FFC2F2BFF0929F62029
:10050000C0887E090320545479410000447D413065
:1005100048484A32384040227A007A0A0A727D0DF1
:1005200019317D2629292F28262929292630484DA9
:100530004020380808080808080808382F10C8ACF8
:10054000BA2F102834FA00007B000008142A142265
:1005500022142A14085500550055AA55AA55AAFF79
:1005600055FF55FF000000FF00101010FF0014148D
:1005700014FF001010FF00FF1010F010F0141414FE
:10058000FC001414F700FF0000FF00FF1414F40433
:10059000FC141417101F10101F101F1414141F0028
:1005A000101010F0000000001F101010101F10108D
:1005B0001010F010000000FF10101010101010109C
:1005C00010FF10000000FF140000FF00FF00001FDC
:1005D00010170000FC04F414141710171414F4047A
:1005E000F40000FF00F714141414141414F700F7A7
:1005F000141414171410101F101F141414F41410D2
:1006000010F010F000001F101F0000001F14000069
:1006100000FC140000F010F01010FF10FF14141470
:10062000FF141010101F00000000F010FFFFFFFF6C
:10063000FFF0F0F0F0F0FFFFFF0000000000FFFF10
:100640000F0F0F0F0F3844443844FC4A4A4A347E97
:1006500002020606027E027E026355494163384467
:10066000443C04407E201E2006027E020299A5E73B
:10067000A5991C2A492A1C4C7201724C304A4D4DD6
:10068000303048784830BC625A463D3E49494900BE
:100690007E0101017E2A2A2A2A2A44445F444440DA
:1006A000514A444040444A51400000FF0103E08069
:1006B000FF000008086B6B083612362436060F0957
:1006C0000F06000018180000001010003040FF0155
:1006D00001001F01011E00191D1712003C3C3C3C8B
:1006E000000000000000000000240027002A000095
:1006F00000000800020100000304070000000000E1
:100700000000004578697400000000002300260006
:100710002900040404040404040402020202020284
:1007200003030303030301020408102040800102B5
:1007300004081020010204081020CD043D045304D5
:1007400036044D61696E206D656E7500457869747B
:1007500000DF05AF055705486F6D657273656B6CFB
:10076000657400A2047F0570047704690442656122
:100770006C6C697461736F6B004669726D7761723E
:1007800065004672697373697420736562009B0427
:1007900094048D044D656E7465730050726F6669C4
:1007A0006C20330050726F66696C20320050726F9B
:1007B00066696C203100C604BF04B80450726F66CD
:1007C000696C6F6B0050726F66696C2033005072F9
:1007D0006F66696C20320050726F66696C20310060
:1007E0003A051D050005E30449646F7A6974657371
:1007F0000070007453746F700073007453746172EE
:10080000740073006653746F7000730066537461F4
:1008100072740077056F05546865726D6F7374614B
:1008200074004B4900424500A7059F0597054D659B
:100830006E752054696D65720031350033300036B5
:100840003000D705CF05C705546F6C65722E003692
:10085000003400320017060F060706FF05F705549F
:10086000656D7000383000373500373000363500A0
:1008700036300000302411241FBECFEFD8E0DEBF99
:10088000CDBF12E0A0E0B1E0EAE9F6E502C00590D4
:100890000D92AC35B107D9F726E0ACE5B2E001C066
:1008A0001D92AD32B207E1F714E0CBE3D4E004C00F
:1008B0002197FE010E943B29CA33D107C9F70E9444
:1008C000C21D0C944B2B0C94000040919A02262FD1
:1008D00030E0240F311D21323105DCF420919B02E0
:1008E0002430C9F4FC0180E090E0861758F4309180
:1008F0009A022191DC01A658BD4FA30FB11D2C9384
:100900000196F3CF80919A02680F60939A0280E07B
:10091000089581E0089582E0089508958FEF9FEF94
:1009200008958FEF9FEF08958091770290E0919561
:10093000819591090895CF93DF9300D0CDB7DEB7AD
:10094000CB01642F49835A830E9465044981842F17
:100950005A81952F0F900F90DF91CF910895CF93EB
:10096000DF931F92CDB7DEB7698361E0CE010196B8
:100970000E94650481E090E00F90DF91CF9108958F
:100980000895CF93DF93DC015196ED91FC9152973E
:10099000EE0FFF1F53968D919C915497E80FF91F0E
:1009A000C591D4915696ED91FC91579781E02F8196
:1009B0009081291301C080E0DF91CF910895CF93FA
:1009C000DF93DC015196ED91FC915297EE0FFF1FE2
:1009D00053968D919C915497E80FF91FC591D4912E
:1009E0005696ED91FC91579790818F818927DF91E1
:1009F000CF910895FC01A785B0899C9181E0218960
:100A0000921301C080E0918B0895CF93DF93DC01B6
:100A100052961C921E9251971F968D919C915097C1
:100A200040E050E048175907D4F45396ED91FC91FB
:100A300054979A01220F331FE20FF31FC591D491EF
:100A40005696ED91FC9157973F812081321304C057
:100A500052965C934E9351974F5F5F4FE3CFDF9178
:100A6000CF910895EF92FF920F931F93CF93DF934F
:100A7000EC018B017A018091F2029091F3028C17C4
:100A80009D0799F1EC81FD81CE01099581116FC01F
:100A9000E091F202F091F3028385948521853285FD
:100AA0003A8729879C878B87FE87ED87D093F3024F
:100AB000C093F2021D8A89899A89D80116962D91D0
:100AC0003C911797821793072CF417969C938E935B
:100AD00016970BC0F80122853385821793072CF0F7
:100AE000821B930B01969783868340E0B801CE0169
:100AF0000E94290E20E0A701B801CE010E948512B4
:100B0000FC0197FD33C08F859889E817F90774F5C4
:100B1000FA8BE98BEE0FFF1F8B899C89E80FF91F79
:100B2000A591B49116968C9116978823F9F0EE89C9
:100B3000FF8917968C9117978083ED91FC911197FF
:100B40000480F581E02D21E0A701B801CD010995D0
:100B50008D859E859093F3028093F202D701ED91EB
:100B6000FC910284F385E02DC701099580E0DF91B7
:100B7000CF911F910F91FF90EF900895EF92FF9208
:100B80000F931F93CF93DF93EC018B017A01809138
:100B9000F2029091F3028C179D0799F1EC81FD818F
:100BA000CE01099581116FC0E091F202F091F3023C
:100BB00083859485218532853A8729879C878B8711
:100BC000FE87ED87D093F302C093F2021D8A8989D4
:100BD0009A89D80116962D913C9117978217930701
:100BE0002CF417969C938E9316970BC0F8012285D0
:100BF0003385821793072CF0821B930B0196978302
:100C0000868340E0B801CE010E94290E20E0A701B2
:100C1000B801CE010E948512FC0197FD33C08F857B
:100C20009889E817F90774F5FA8BE98BEE0FFF1F27
:100C30008B899C89E80FF91FA591B49116968C9128
:100C400016978823F9F017968C911797EE89FF89EC
:100C50008083ED91FC9111970480F581E02D21E0D6
:100C6000A701B801CD0109958D859E859093F3026A
:100C70008093F202D701ED91FC910284F385E02D7F
:100C8000C701099580E0DF91CF911F910F91FF90EF
:100C9000EF9008950F931F93CF93DF93EC018B0197
:100CA0000E9405056A817B81C8010E94B31360E23E
:100CB000C8010E946516E989FA89EE0FFF1F8B892A
:100CC0009C89E80FF91F85919491DC01ED91FC91CD
:100CD0000190F081E02DB801DF91CF911F910F912C
:100CE00009942F923F924F925F926F927F928F92D0
:100CF0009F92AF92BF92CF92DF92EF92FF920F93AB
:100D00001F93CF93DF93EC013B018A018091F202A4
:100D10009091F3028C179D0721F1EC81FD81CE01AA
:100D2000099581114CC1E091F202F091F3028185A5
:100D300092859A878987838594859C878B87FE8790
:100D4000ED87D093F302C093F2028FEF9FEFD301B0
:100D500053969C938E9352974589B301CF010E947D
:100D6000290E8D859E85FC014589B3010E94290EBF
:100D7000D801ED91FC910480F581E02DC801099521
:100D8000892B09F4A6C0D801ED91FC910084F1856E
:100D9000E02DC8010995BC0180E592E00E94EC2994
:100DA000892BB1F12F843888C8010E94FD17FC01FE
:100DB00097FD15C08D32910509F48DC0C0970A9733
:100DC00008F489C0EE32F10509F485C0D801ED912F
:100DD000FC910680F781E02DC8010995E5CF60E020
:100DE00070E0CB010E94AE29F1016083188E8D85E1
:100DF0009E859093F3028093F202D801ED91FC91CD
:100E00000284F385E02DC80109958AE28B8F3EC0EC
:100E1000D801ED91FC910680F781E02DC80109957C
:100E20008B8FEF85F88990819C8F8A32C9F4888DE9
:100E3000811103C08F89811110C0188E8D859E8508
:100E40009093F3028093F202D801ED91FC91028419
:100E5000F385E02DC801099519C081E0888F16C07F
:100E60008B3249F48081988D992311F09F8901C0BC
:100E70009E89890F0AC08D3249F48081988D99230B
:100E800011F09F8901C09E89891B8083EF85F889B5
:100E900090818C89981718F08D89891708F48083C0
:100EA000EF85F88990818C8D981303C08B8D8A32E1
:100EB00081F4E98DFA8D09958FEF9FEFF301938B04
:100EC000828B8D859E85DC0155964C91B3010E94E5
:100ED000290E80E074C0812C912C80E8A82E8FE32D
:100EE000B82EC12CD12C7601512C412CE130F105CA
:100EF00079F1ED32F10539F1EE32F10539F1CF0139
:100F0000C0970A9728F5AAE0B0E0A70196010E94D1
:100F1000312B6F01FF0FEE08FF08C60ED71EE81E2B
:100F2000F91EB0E3CB1AD108E108F108552081F091
:100F30002DEC3CEC4CEC5DE3C501B4010E945D2A54
:100F40004B015C0105C04424439402C055245394D2
:100F5000D801ED91FC910680F781E02DC80109953B
:100F6000C8010E94FD17FC01C0970A9708F4BECF84
:100F7000EE32F10519F451101FC0B8CFE130F10580
:100F800009F4B4CF442041F0F094E094D094C0949C
:100F9000C11CD11CE11CF11C552049F0C701B60150
:100FA0000E94FE29A50194010E945D2A1BCFC70162
:100FB000B6010E94FE2916CF4110E6CFEFCFDF9198
:100FC000CF911F910F91FF90EF90DF90CF90BF9046
:100FD000AF909F908F907F906F905F904F903F90D9
:100FE0002F9008950F931F93CF93DF93EC018B0104
:100FF0006A817B81C8010E94B3138091F2029091B3
:10100000F3028C179D0729F4888D811104C06AE3CF
:1010100003C060E201C06EE3C8010E946516EF855F
:10102000F889408150E060E070E02AE0C8010E9449
:1010300081166A897B89C801DF91CF911F910F9139
:101040000C94B313DC01E0E0615038F08D91E82797
:10105000F0E0EB51FF4FE491F7CF8E2F0895FC01A4
:1010600090810180F281E02DF8948181892B818328
:101070002281892F809528232283A7E0B0E0119751
:10108000F1F7218182238183A3E2B0E01197F1F788
:1010900080817894EFECF0E03197F1F7982381E0CC
:1010A00009F480E00895FC0190810180F281E02D37
:1010B000892F809560FF12C0F89422818223828359
:1010C0008181892B8183A3E2B0E01197F1F78281BE
:1010D000982B9283789487ED90E011C0F894228148
:1010E000822382838181892B8183AFEFB0E01197C6
:1010F000F1F78281982B928378948FE090E00197AA
:10110000F1F70895CF92DF92EF92FF920F931F9322
:10111000CF93DF931F92CDB7DEB76C01E62E08E0C8
:1011200010E0FF24F39461E08F2D8E2109F460E03C
:10113000C60149830E945308FF0C015011094981DF
:101140000115110581F7411115C0F894D6011196CA
:10115000ED91FC91129791818C91809589238183E7
:101160001196ED91FC91129792818C918095892333
:10117000828378940F90DF91CF911F910F91FF9010
:10118000EF90DF90CF900895CF92DF92EF92FF9291
:101190000F931F93CF93DF931F92CDB7DEB78C01D0
:1011A000F62E40E065E579830E948208CF2C798194
:1011B000D72E760188E0E80EF11CF60161916F01EF
:1011C00040E0C8010E948208CE14DF04B1F70F90FE
:1011D000DF91CF911F910F91FF90EF90DF90CF9013
:1011E0000895FC0190810180F281E02DF8948181C5
:1011F000292F20958223818378948DE743E050E066
:10120000815021F1DA011197F1F730813923C1F3CF
:10121000F8948281822382838181892B81837894CF
:10122000ABE7B7E01197F1F7F89481812823218388
:10123000A3E1B1E01197F1F78081982381E009F0F3
:1012400080E07894E3E6F6E03197F1F70895CF93E4
:10125000CFB7F89480917602811127C0ECE1F7E0D6
:101260008491E0E3F7E09491E82FF0E0EE0FFF1FA8
:10127000EB51F94FA591B491EC91E92321F461E090
:101280008AE00E944B1761E08AE00E947B178CB5D0
:1012900080618CBD8CB580648CBD61E08DE00E9466
:1012A0007B1761E08BE00E947B17809176028F5F55
:1012B00080937602CFBFCF910895CF93DF93DC0167
:1012C00052961C921E9251971F968D919C91509709
:1012D00040E050E048175907D4F45396ED91FC9143
:1012E00054979A01220F331FE20FF31FC591D49137
:1012F0005696ED91FC9157973F812081321304C09F
:1013000052965C934E9351974F5F5F4FE3CFDF91BF
:10131000CF9108950F931F93CF93DF93EC018B012F
:101320000E945D096A817B81C8010E94B31360E25B
:10133000C8010E946516E989FA89EE0FFF1F8B89A3
:101340009C89E80FF91F85919491DC01ED91FC9146
:101350000190F081E02DB801DF91CF911F910F91A5
:101360000994CF92DF92EF92FF920F931F93CF9346
:10137000DF93EC016A0179010E94330ED88ACF868F
:10138000FC8AEB8A1D8A89E391E0998388831F8B0D
:101390000E8BCE010E94050585E491E09983888338
:1013A000CE01DF91CF911F910F91FF90EF90DF90D1
:1013B000CF900C94050544E050E080E090E076E4A6
:1013C00070937C0020917A00206420937A00209111
:1013D0007A0026FDFCCF209178006091790030E002
:1013E000362B820F931F4150510951F797FD0396F9
:1013F0009595879595958795893E23E0920794F476
:101400008431910590F09C0123533109213331053A
:1014100078F0205A31092732310568F0875991094F
:10142000879760F080E090E0089581E090E0089573
:1014300082E090E0089583E090E0089584E090E0F9
:10144000089510925F0281E080930A018093090160
:101450008093080110925E02089508959F92AF92C2
:10146000BF92CF92DF92EF92FF920F931F93CF9391
:10147000DF93EC016B01942E570188A199A1DC0147
:10148000ED91FC910684F785E02D442319F0EC885A
:10149000FD8802C0EE88FF880E851F8568857985E6
:1014A0004C855D85649F9001659F300D749F300D64
:1014B0001124A09EA001A19E500DB09E500D11249C
:1014C00060E070E00995F6018681992041F088235B
:1014D00019F08C8D9D8D0AC08E8D9F8D07C088233D
:1014E00019F0888D998D02C08A8D9B8DE8A1F9A194
:1014F000938B828B918B808BE881F9810484F585B5
:10150000E02DA50160E070E0CE010995D601ED91D6
:10151000FC910190F081E02DBE01C601DF91CF91D9
:101520001F910F91FF90EF90DF90CF90BF90AF9001
:101530009F900994DC0190968D919C919197DC018C
:10154000ED91FC910190F081E02D0994FC0126853C
:101550003785429FC001439F900D529F900D1124EB
:10156000A0A1B1A144855585649F9001659F300D70
:10157000749F300D11241D963C932E931C971F963B
:101580009C938E931E970895EF92FF920F931F9353
:10159000CF93DF93EC0188A199A1DC01ED91FC913F
:1015A000EE88FF884E855F852A853B85429F8001B6
:1015B000439F100D529F100D11246C857D85488529
:1015C0005985649F9001659F300D749F300D1124E3
:1015D0000684F785E02D40E050E060E070E009957A
:1015E000E881F9810484F585E02D40E050E060E079
:1015F00070E0CE01DF91CF911F910F91FF90EF909E
:101600000994CF92DF92EF92FF920F931F93CF93A3
:10161000DF93EC016B0188A199A10E851F85DC0188
:10162000ED91FC91EE88FF886C857D854885598514
:10163000649F9001659F300D749F300D1124C09EF2
:10164000A001C19E500DD09E500D11240684F78537
:10165000E02D60E070E00995E881F9810484F5856A
:10166000E02DA60160E070E0CE01DF91CF911F91E7
:101670000F91FF90EF90DF90CF90099480E090E081
:1016800008950895DC011C96ED91FC911D97099435
:1016900081E0089580E0089580E00895DC011496CB
:1016A000ED91FC911597099480E0089508950895AF
:1016B000CF93DF930E94DB09EC0180917802909137
:1016C0007902C817D90719F162E370E080E090E071
:1016D0000E94B7170E94DB09C817D90709F020C07C
:1016E00010925D0210925C02D0937902C09378024E
:1016F0002097A9F3C130D10569F0C230D10561F05E
:10170000C330D10559F0249751F78AE208C08FEF12
:101710009FEF06C08FE203C08DE201C08BE290E034
:10172000DF91CF9108956091020180E590E00E94E1
:10173000232B6091290186E490E00E94232B609185
:10174000270186E990E00E94232B6091260180EA20
:1017500090E00E94232B609125018AEA90E00E948C
:10176000232B6091240184EB90E00E94232B609155
:101770002B018EEB90E00E94232B60912A0188ECD4
:1017800090E00E94232B81E008956091020180E5A2
:1017900090E00E94232B6091290186E490E00E9452
:1017A000232B609127018AE590E00E94232B609112
:1017B000260184E690E00E94232B609125018EE6AD
:1017C00090E00E94232B6091240188E790E00E9422
:1017D000232B60912B0182E890E00E94232B6091E3
:1017E0002A018CE890E00E94232B81E0089560910B
:1017F000020180E590E00E94232B6091290186E49C
:1018000090E00E94232B609127018AE090E00E94E3
:10181000232B6091260184E190E00E94232B6091AC
:1018200025018EE190E00E94232B6091240188E243
:1018300090E00E94232B60912B0182E390E00E94B4
:10184000232B60912A018CE390E00E94232B81E0FE
:10185000089583E08093020163E080E590E00E94B8
:10186000232B86E990E00E941B2B8093270180EABE
:1018700090E00E941B2B809326018AEA90E00E9450
:101880001B2B8093250184EB90E00E941B2B8093FF
:1018900024018EEB90E00E941B2B80932B0188EC9F
:1018A00090E00E941B2B80932A0181E0089582E042
:1018B0008093020162E080E590E00E94232B8AE59C
:1018C00090E00E941B2B8093270184E690E00E9409
:1018D0001B2B809326018EE690E00E941B2B8093A9
:1018E000250188E790E00E941B2B8093240182E869
:1018F00090E00E941B2B80932B018CE890E00E94CB
:101900001B2B80932A0181E0089581E080930201DE
:1019100061E080E590E00E94232B8AE090E00E9445
:101920001B2B8093270184E190E00E941B2B809366
:1019300026018EE190E00E941B2B8093250188E216
:1019400090E00E941B2B8093240182E390E00E9490
:101950001B2B80932B018CE390E00E941B2B809328
:101960002A0181E008955F926F927F928F929F92F9
:10197000AF92BF92CF92DF92EF92FF920F931F939D
:10198000CF93DF93EC015B01542E8C819D818617F0
:10199000970739F0E881F9810680F781E02DCE01C3
:1019A0000995D50151968D919C9152972E813F8139
:1019B0004A855B85BC01621B730B6417750724F0B5
:1019C000841B950B019603C08217930714F49F8321
:1019D0008E830E811F814801880C991CF501278593
:1019E00030898E819F81021713070CF048C04A8509
:1019F0005B859801281B390B241735070CF07FC035
:101A00002C813D81F80131963F012A153B0531F1CA
:101A1000D5015396ED91FC915497E80DF91D659110
:101A20007491E881F9811796CD90DC9018978E819A
:101A30009F817801E81AF90A41E051968D919C91B5
:101A400052970817190709F040E00684F785E02D42
:101A500000E010E09301CE0109950CC02889398976
:101A600082179307A9F6A801B501CE010E944F1273
:101A70008111CECF8301B2E08B0E911CAFCF5520E8
:101A8000F1F14A855B859801281B390B241735072E
:101A9000B4F52C813D812A153B0529F1E881F981B6
:101AA000D5011796CD90DC9018978E819F81780193
:101AB000E81AF90A41E051962D913C9152971F96F0
:101AC0008D919C9150972817390709F040E00684C2
:101AD000F785E02D00E010E020E030E063E973E0FE
:101AE000CE0109950CC02889398982179307B1F670
:101AF000A801B501CE010E944F128111CFCF8E8176
:101B00009F81998B888BF501818992899B8B8A8B28
:101B1000BD82AC82DF91CF911F910F91FF90EF902A
:101B2000DF90CF90BF90AF909F908F907F906F90FD
:101B30005F900895AF92BF92CF92DF92EF92FF92A3
:101B40000F931F93CF93DF93EC01E881F981008419
:101B5000F185E02D09955C010E851F8580179107A1
:101B600001F10E94F117C888D988EA88FB889B0197
:101B7000AC012C193D094E095F0969017A010E94E7
:101B8000F117688B798B8A8B9B8BBF86AE863DED78
:101B9000C31635E0D306E104F10428F00FE210E0AB
:101BA00002C00FEF1FEFC801DF91CF911F910F917E
:101BB000FF90EF90DF90CF90BF90AF900895CF92BD
:101BC000DF92EF92FF920F931F93CF93DF93EC017D
:101BD000E881F9810084F185E02D09958C018E85DD
:101BE0009F85019649F41F870E870E94F117688B25
:101BF000798B8A8B9B8B11C00E94F117C888D9887A
:101C0000EA88FB88DC01CB018C199D09AE09BF096C
:101C10008D3D9540A105B10550F421E090E04E8541
:101C20005F850417150709F420E0822F02C081E0C8
:101C300090E0DF91CF911F910F91FF90EF90DF9097
:101C4000CF9008959B01FC0162817381C9010C94BE
:101C5000B313DB01ED91FC9111970088F189E02D20
:101C6000BC01CD010994FC01738362838AE49BE08B
:101C70009583848381E0868381E591E091838083ED
:101C800080E290E0908787831286118614861386FF
:101C900016861586089508952F923F924F925F926F
:101CA0006F927F928F929F92AF92BF92CF92DF926C
:101CB000EF92FF920F931F93CF93DF93CDB7DEB7D1
:101CC0006B970FB6F894DEBF0FBECDBF4C015A83A1
:101CD00049831F830E83FD82EC82CB82DC01589600
:101CE0004D915C9159974115510509F0A5C0189681
:101CF0008D919C911997681779070CF05AC11A9623
:101D00008D919C911B97E981FA81E817F9070CF0F6
:101D100050C1D12CCB013B81F6E03F9F800D911D3E
:101D20001124181619060CF044C1C60133E0880FBF
:101D3000991F3A95E1F749815A81840F951F18162A
:101D400019060CF036C157968C91811103C0203BC7
:101D500008F02F5F55E0259F900111247E876D8745
:101D60005B01212CC901861B970B99878887A98164
:101D7000BA811896BB87AA87B5E02B1641F0E88593
:101D8000F985EA0DFB1DEB51FE4F349001C0312C5B
:101D900069807A80230130FE12C0D401ED91FC915C
:101DA000BB81B13031F40480F581E02D2E813F817B
:101DB00018C00684F785E02DEE80FF801CC0EC8102
:101DC000FD812E813F81E217F307E1F0D401ED910F
:101DD000FC91BB81B13051F40480F581E02D2C8160
:101DE0003D81A301B501C40109950CC00684F785A6
:101DF000E02DEC80FD8086019601A2016D857E8537
:101E0000C40109953694EFEF6E1A7E0A4C0C5D1CE6
:101E10002A853B856216730609F0BDCF23943FEFF8
:101E2000A31AB30A4D855E854C0D5D1D5E874D87F7
:101E300056E02512A1CFBDC0FA01349634913297F5
:101E400085919491231BA7E02A9F800D911D112459
:101E5000FA01259134913A8B298BFC01259034901D
:101E6000FC01329634913887319644914C873196F3
:101E7000E491FC013596A491319684915B815230B6
:101E800050F06A2E0A2E000C7708E82F082E000C5E
:101E9000FF0BFB87EA87FB81CF2ED12C6C9C900136
:101EA0006D9C300D7C9C300D1124A901460F571FED
:101EB000588B4F871C82A12CEA2FAA0FFF0B3B01E6
:101EC0006E0E7F1E5885650F711DDB01AE0FBF1FA3
:101ED000BF8BAE8BE981FA81E80FF11D87FDFA9582
:101EE000F98FE88F9C85A91608F063C08A2D90E0D1
:101EF0004A855B85480F591F4C9D90014D9D300DC3
:101F00005C9D300D1124A981BA81A20FB31FBE8739
:101F1000AD877B8E6A8E4F845888BC81B619BB8B87
:101F2000E88DF98DE80FF91FFD8BEC8B8B89FA8D0D
:101F30008F0F2A8D3B8D4E895F892417350799F1C4
:101F4000877041F4C1010196E989FA89E20DF31D18
:101F5000B4901C01B7FE1EC0D401ED91FC91BB8171
:101F6000B13061F40480F581E02D2E813F814C89F0
:101F70005D896A8D7B8DC40109950CC00684F78547
:101F8000E02DEE80FF80860196014D855E85B201D1
:101F9000C4010995BB0CEA8DFB8D3196FB8FEA8F4E
:101FA0004C0C5D1CC3CF5C818885580F5C83A39467
:101FB00099CF6B960FB6F894DEBF0FBECDBFDF9101
:101FC000CF911F910F91FF90EF90DF90CF90BF9036
:101FD000AF909F908F907F906F905F904F903F90C9
:101FE0002F900895AF92BF92CF92EF92FF920F93EE
:101FF0001F93CF93DF93EC01262F888D998D009747
:1020000009F042C06A3069F42C898E859F8538E0DA
:10201000239F800D911D11249F878E871D861C860E
:10202000ACC06D3009F4A9C08E898823C1F03C8909
:102030008C859D8546E0349F800D911D1124488537
:102040005985841795075CF01D861C868E859F85B3
:10205000E8E03E9F800D911D11249F878E87EA88BE
:10206000FB88088919894E855F856C857D85CC88BC
:10207000CE010E944C0E2C898C859D85F6E02F9F09
:10208000800D911D112441C06A3079F41D861C8693
:102090002C89FC013696E4918E859F852E9F800DBC
:1020A000911D11249F878E8768C06D3009F465C02B
:1020B000AC014C5F5F4FFA013491631708F45DC0C7
:1020C0003196E491E61708F458C0FA014491362F8E
:1020D000341BFC013296A590B490F7E03F9FA00C12
:1020E000B11C1124F501329634913196E4913323D9
:1020F00011F0E1110DC0F5013496E4912C898C8525
:102100009D85E29F800D911D11249D878C8735C090
:10211000F501359644915E89552311F16C89E32FC1
:10212000F0E0E40FF11D47FDFA956E9FD0016F9F1F
:10213000B00D11244C855D854A0F5B1FE885F9853C
:102140004E175F076CF01D861C86FC013696E491E5
:102150008E859F856E9F800D911D11249F878E8790
:10216000EA88FB88088919894E855F856C857D859D
:10217000CC88CE010E944C0EBECF81E090E0DF9172
:10218000CF911F910F91FF90EF90CF90BF90AF90A4
:102190000895EF92FF920F931F93DC01ED91FC9154
:1021A00011971A960D911C911B9718962D913C91A1
:1021B00019970684F785E02D7B0140E050E060E050
:1021C00070E009951F910F91FF90EF9008956F9225
:1021D0007F928F929F92AF92BF92CF92DF92EF92B7
:1021E000FF920F931F93CF93DF936C015A01480125
:1021F000EB013B01620E731EC615D70574F4D601C0
:10220000ED91FC910084F185E02D87019401A501F9
:10221000BE01C60109952196EFCFDF91CF911F91A5
:102220000F91FF90EF90DF90CF90BF90AF909F9075
:102230008F907F906F900895EF92FF920F931F936E
:10224000DC01ED91FC91260F371F215031090680EA
:10225000F781E02D78018A0109951F910F91FF9078
:10226000EF900895EF92FF920F931F937801DC0196
:10227000ED91FC91240F351F890101501109068051
:10228000F781E02D9B0109951F910F91FF90EF9031
:1022900008956F927F928F929F92AF92BF92CF924A
:1022A000DF92EF92FF920F931F93CF93DF93EC0196
:1022B0004B015A0169013801E881F9810284F385F3
:1022C000E02D87010995E881F981A501460D571D8B
:1022D000415051090284F385E02D9601B401CE01ED
:1022E0000995E881F9810084F185E02D9301A5012C
:1022F000B401CE010995E881F981C80CD91CB60159
:10230000615071090084F185E02D9301A501CE0192
:102310000995DF91CF911F910F91FF90EF90DF9082
:10232000CF90BF90AF909F908F907F906F900895C7
:102330002F923F924F925F926F927F928F929F92D5
:10234000AF92BF92CF92DF92EF92FF920F931F93C3
:10235000CF93DF9300D01F92CDB7DEB74C017B83C4
:102360006A836A01590117019801241B350B37FF55
:1023700003C0319521953109C5014A815B81841BD8
:10238000950B97FF03C091958195910951E0598371
:102390008217930714F019820BC09A2D8B2D5801C8
:1023A000092F182F9A818B81DB82CA82C92ED82EE1
:1023B0008A819B81A816B9065CF49C2D8D2D68013D
:1023C000092F182F9A818B81BB82AA82A92EB82E41
:1023D0002501AA81BB814A1A5B0A38016C187D0865
:1023E00077FE03C0719461947108720157FE03C0B7
:1023F000BFEFEB1AFB0AF594E794C016D1061CF068
:102400000FEF1FEF1FC001E010E01CC0D401ED91E1
:10241000FC91B9810480F581E02D9101BB23C1F0CD
:102420004A815B81B601C4010995E618F708F7FEF9
:1024300004C0C00ED11EE40CF51CEA81FB8131966C
:10244000FB83EA834A815B81A416B506FCF604C0CF
:10245000A6016A817B81E7CF0F900F900F90DF91EB
:10246000CF911F910F91FF90EF90DF90CF90BF9091
:10247000AF909F908F907F906F905F904F903F9024
:102480002F90089585ED8093BC008091BC0084FD61
:10249000FCCF10929B0208958CBD9DBD0895CF93F3
:1024A000DF93FB01A189B289EC012A893B89A2173C
:1024B000B30731F04A175B0711F142175307F9F0E0
:1024C0002785308942175307E4F49A01220F331FFE
:1024D0000388F489E02DE20FF31FC591D491E881C0
:1024E000F98121E04A175B0709F020E00280F381BF
:1024F000E02D422FBC01CE01DF91CF91099481E004
:1025000001C080E0DF91CF910895CF92DF92FF92DA
:102510000F931F93CF93DF93EC018B016A01F22E8F
:10252000DA01ED91FC910480F581E02DCA01099555
:10253000892B19F48EEF9FEF77C0D601ED91FC91B6
:102540000680F781E02DC60109958A32910509F4CC
:102550004DC08D329105B1F489899A89019797FD13
:1025600003C09A8B898B02C01A8A198A89899A8931
:10257000F80126813781821793070CF047C09783B3
:10258000868344C08B32910561F529893A892F5F92
:102590003F4F3A8B298B41E04F258F859889841BCB
:1025A00091098217930714F49A8B898B89899A89E8
:1025B000D8011A964D915C911B979C012F5F3F4F5C
:1025C00016966D917C911797261B370B4217530770
:1025D000ECF4841B950B019617969C938E9316979B
:1025E00015C08F329105E9F0C19707C089899A8992
:1025F0002F85388982179307A1F097FD09C02F8591
:102600003889821793070CF095CF0EC08EEF9FEF9D
:10261000FF2009F48FCF8F3FBFEF9B0709F08ACFD0
:1026200003C08FEF9FEFF4CFDF91CF911F910F91F8
:10263000FF90DF90CF900895AF92BF92CF92DF923C
:10264000EF92FF920F931F93CF93DF93EC018B01D7
:102650007A01C22E8091F2029091F3028C179D07AD
:10266000C9F0EC81FD81CE010995D82E81116FC092
:102670008091F2029091F3029E878D87D093F302AE
:10268000C093F2021A8A198AD80117961C921E92D8
:102690001697CD8A4C2DB801CE010E94290E2C2D03
:1026A000A701B801CE010E948512FC0197FD36C03A
:1026B0008F859889E817F9070CF048C0FA8BE98BE9
:1026C000EE0FFF1F8B899C89E80FF91FA590B4902E
:1026D000F50186818823D1F14C2DB801CE010E94ED
:1026E000290ED501ED91FC910480F581E02D21E0CA
:1026F000A701B801C5010995D82E882339F1D80161
:10270000ED91FC910680F781E02DC80109958D853A
:102710009E859093F3028093F20219C00196B1F462
:10272000D801ED91FC910680F781E02DC801099553
:102730008D859E859093F3028093F202D701ED91EF
:10274000FC910284F385E02DC7010995D12C8D2DD4
:10275000DF91CF911F910F91FF90EF90DF90CF907D
:10276000BF90AF9008950F931F93CF93DF938C0189
:10277000FB016491EF012196662351F0D801ED91A0
:10278000FC910190F081E02DC8010995FE01F1CF87
:10279000DF91CF911F910F9108951F920F920FB665
:1027A0000F9211242F933F934F935F936F937F93D7
:1027B0008F939F93AF93BF93EF93FF938091B90053
:1027C000887F803609F49CC068F5883209F45BC0C4
:1027D00090F4803109F454C038F4882309F4F6C029
:1027E000883009F44DC0F6C0883109F44CC08032FD
:1027F00009F45DC0EFC0803409F468C048F4803348
:1028000009F455C0883309F0E5C08093C202D8C0EE
:10281000803509F44FC0883509F45DC0883409F06B
:10282000D9C0D6C0883909F4C7C0A8F4883709F4DC
:1028300067C038F4883609F463C0803709F460C093
:10284000C9C0883809F4B8C0803909F45FC080383D
:1028500009F0C0C05BC0803B09F486C038F4803A00
:1028600009F466C0883A09F47FC0B4C0803C09F41A
:10287000A7C0883C09F4A4C0883B09F48AC0AAC058
:102880008091E70210C09091E6028091E5029817CE
:1028900070F5E091E60281E08E0F8093E602F0E0B1
:1028A000EB53FD4F80818093BB0085EC86C0809305
:1028B000C2028EC0E091E60281E08E0F8093E602B4
:1028C0008091BB00F0E0EB53FD4F80839091E602D6
:1028D0008091E5026EC0E091E60281E08E0F809368
:1028E000E6028091BB00F0E0EB53FD4F80838091C6
:1028F000C40281116DC081E08093C30284EA61C08B
:1029000083E080939B021092C102CFCF8091C102DD
:10291000803208F051C0E091C10281E08E0F8093B7
:10292000C1028091BB00F0E0EF55FD4F8083BDCF29
:1029300085EC8093BC0010929B028091C102803292
:1029400030F4E091C102F0E0EF55FD4F108260914C
:10295000C10270E0E0919F02F091A00281EA92E052
:1029600009951092C10236C084E080939B021092B8
:102970009E0210929A02E0919C02F0919D020995AC
:1029800080919A02811105C081E080939A02109291
:102990007A02E0919E0281E08E0F80939E02F0E029
:1029A000E658FD4F80818093BB0090919E028091FC
:1029B0009A02981708F479CF85E88093BC000AC082
:1029C00085EC8093BC0010929B0204C01092C2025E
:1029D0000E944212FF91EF91BF91AF919F918F9111
:1029E0007F916F915F914F913F912F910F900FBE0B
:1029F0000F901F901895CF92DF92EF92FF920F9356
:102A00001F93CF93DF936C017A018B01C0E0D0E07C
:102A1000CE15DF0589F0D8016D918D01D601ED91BC
:102A2000FC910190F081E02DC6010995892B11F4EC
:102A30007E0102C02196ECCFC701DF91CF911F919B
:102A40000F91FF90EF90DF90CF900895FC01918D52
:102A5000828D981761F0828DDF01A80FB11D5D9600
:102A60008C91928D9F5F9F73928F90E008958FEF6E
:102A70009FEF0895FC01918D828D981731F0828D22
:102A8000E80FF11D858D90E008958FEF9FEF089579
:102A9000FC01918D228D892F90E0805C9F4F821BDD
:102AA00091098F739927089584EF92E00E94481549
:102AB00021E0892B09F420E0822F0895FC01848D08
:102AC000DF01A80FB11DA35ABF4F2C91848D90E058
:102AD00001968F739927848FA689B7892C93A08933
:102AE000B1898C9180648C93938D848D981306C0EA
:102AF0000288F389E02D80818F7D80830895EF9295
:102B0000FF920F931F93CF93DF93EC0181E0888FA7
:102B10009B8D8C8D981305C0E889F989808185FD8E
:102B200024C0F62E0B8D10E00F5F1F4F0F7311277F
:102B3000E02E8C8DE8120CC00FB607FCFACFE889A6
:102B4000F989808185FFF5CFCE010E945E15F1CF16
:102B50008B8DFE01E80FF11DE35AFF4FF0820B8FC2
:102B6000EA89FB898081806207C0EE89FF896083E2
:102B7000E889F98980818064808381E090E0DF9139
:102B8000CF911F910F91FF90EF900895CF93DF9316
:102B9000EC01888D8823C9F0EA89FB89808185FD55
:102BA00005C0A889B9898C9186FD0FC00FB607FCB6
:102BB000F5CF808185FFF2CFA889B9898C9185FFF7
:102BC000EDCFCE010E945E15E7CFDF91CF91089542
:102BD00080E090E0892B29F00E94541581110C941B
:102BE000000008953FB7F8948091EE029091EF02B3
:102BF000A091F002B091F10226B5A89B05C02F3F2D
:102C000019F00196A11DB11D3FBFBA2FA92F982F12
:102C10008827820F911DA11DB11DBC01CD0142E08D
:102C2000660F771F881F991F4A95D1F70895EF9275
:102C3000FF920F931F93DC01ED91FC9111971A966F
:102C40000D911C911B9718962D913C911997068414
:102C5000F785E02D7B0140E050E060E070E00995F1
:102C60001F910F91FF90EF900895FC01838D8823B1
:102C700039F06EBD00000DB407FEFDCF8EB508958E
:102C800028E030E090E8A48DB58D81A5492F46233A
:102C900019F04C91842B03C04C91809584238C9324
:102CA000A68DB78D4C9182A5842B8C93A68DB78D64
:102CB0004C9182A5809584238C939695215031095F
:102CC00011F7089508950E94E729DC01ED91FC9128
:102CD0000190F081E02D09946115710579F0FB01F7
:102CE00001900020E9F73197AF01461B570BDC013B
:102CF000ED91FC910280F381E02D099480E090E059
:102D000008954F925F926F927F92EF92FF920F938E
:102D10001F93CF93DF93CDB7DEB7A1970FB6F8948B
:102D2000DEBF0FBECDBF7C01FA01CB0119A222305C
:102D300008F42AE08E010F5D1F4F422E512C612CAA
:102D4000712CBF01A30192010E940529F901CA015A
:102D5000015011096A3014F4605D01C0695CD8014A
:102D60006C93232B242B252B61F7B801C7010E94FC
:102D70006C16A1960FB6F894DEBF0FBECDBFDF91E3
:102D8000CF911F910F91FF90EF907F906F905F9088
:102D90004F9008951F920F920FB60F9211242F9308
:102DA0003F934F935F936F937F938F939F93AF93D3
:102DB000BF93EF93FF9384EF92E00E945E15FF9123
:102DC000EF91BF91AF919F918F917F916F915F91A3
:102DD0004F913F912F910F900FBE0F901F9018951C
:102DE0001F920F920FB60F9211242F938F939F93E0
:102DF000EF93FF93E0910403F09105038081E0914C
:102E00000A03F0910B0382FD12C0908180910D03A3
:102E10008F5F8F7320910E03821751F0E0910D03A5
:102E2000F0E0EC50FD4F958F80930D0301C0808141
:102E3000FF91EF919F918F912F910F900FBE0F9067
:102E40001F901895833081F028F4813099F08230FA
:102E5000A1F008958730A9F08830B9F08430D1F41A
:102E6000809180008F7D03C0809180008F77809358
:102E70008000089584B58F7702C084B58F7D84BDAE
:102E800008958091B0008F7703C08091B0008F7D4E
:102E90008093B00008951F93CF93DF93282F30E0E5
:102EA000F901E151F94F8491F901EA5DF84FD491AC
:102EB000F901EE5EF84FC491CC23C9F0162F8111B1
:102EC0000E942217EC2FF0E0EE0FFF1FE859FF4F92
:102ED000A591B4918FB7F894111105C09C91ED2F75
:102EE000E095E92302C0EC91ED2BEC938FBFDF91CD
:102EF000CF911F910895CF93DF9390E0FC01EA5D9D
:102F0000F84F2491FC01EE5EF84F8491882361F123
:102F100090E0880F991FFC01EB51F94FC591D491B6
:102F2000FC01E859FF4FA591B491611109C09FB709
:102F3000F8948881209582238883EC912E230BC0FE
:102F4000623061F49FB7F8943881822F8095832393
:102F50008883EC912E2B2C939FBF06C08FB7F894DB
:102F6000E8812E2B28838FBFDF91CF9108958F9218
:102F70009F92AF92BF92CF92DF92EF92FF926B013E
:102F80007C010E94F2154B015C01C114D104E104E3
:102F9000F104F1F00E94F215DC01CB0188199909C6
:102FA000AA09BB09883E9340A105B10570F321E051
:102FB000C21AD108E108F10888EE880E83E0981E55
:102FC000A11CB11CC114D104E104F10419F7DDCF37
:102FD000FF90EF90DF90CF90BF90AF909F908F9039
:102FE00008952FB7F8946091EA027091EB028091F6
:102FF000EC029091ED022FBF08950F931F93CF9392
:10300000DF93EC010E94F117688779878A879B8795
:10301000E881F9810084F185E02DCE01099597FFC3
:1030200017C00E94F117088519852A853B85DC01A8
:10303000CB01801B910BA20BB30B0C811D812E8148
:103040003F8180179107A207B30710F38FEF9FEF1F
:10305000DF91CF911F910F9108951F920F920FB69C
:103060000F9211242F933F938F939F93AF93BF930E
:103070008091EA029091EB02A091EC02B091ED02F6
:103080003091E90223E0230F2D3720F40196A11D92
:10309000B11D05C026E8230F0296A11DB11D209386
:1030A000E9028093EA029093EB02A093EC02B093C2
:1030B000ED028091EE029091EF02A091F002B091AA
:1030C000F1020196A11DB11D8093EE029093EF02D3
:1030D000A093F002B093F102BF91AF919F918F91B5
:1030E0003F912F910F900FBE0F901F9018950F9347
:1030F0001F93CF93DF931F92CDB7DEB78C018091E2
:1031000091039091920369830E944C12D801929688
:10311000ED91FC91939790819C968C919C97892B33
:1031200080839096ED91FC91919790819B968C91E4
:103130008095892380836981C8010E943516D80152
:103140009096ED91FC91919790819B968C91892B13
:1031500080830F90DF91CF911F910F9108950F936E
:103160001F93CF93DF931F92CDB7DEB78C01809171
:1031700091039091920369830E944C12D801929618
:10318000ED91FC91939790819C968C919C97809562
:10319000892380839096ED91FC91919790819B96E5
:1031A0008C918095892380836981C8010E9435169E
:1031B000D8019096ED91FC91919790819B968C917E
:1031C000892B80830F90DF91CF911F910F910895EC
:1031D000611102C060E201C061E20C94AF18EF928D
:1031E000FF920F931F93CF93DF9300D0CDB7DEB73D
:1031F0007C01162F6AE229834A830E94AF1860E09F
:10320000C7010E947718F70185A5612F680FC701D4
:103210000E94771860E0C7010E947718F70185A522
:103220002981622F680FC7010E9477186BE2C701DE
:103230000E94AF1860E0C7010E947718F70186A5C9
:103240004A81642F680FC7010E94771860E0C701A8
:103250000E947718F70186A5602F680FC7010E94AA
:1032600077186CE2C7010F900F90DF91CF911F91FB
:103270000F91FF90EF900C94AF18AF92BF92CF9246
:10328000DF92EF92FF920F931F93CF93DF93EC01A6
:103290005901680128853985621773070CF050C001
:1032A0008A859B85481759070CF04AC0FB01EA0D37
:1032B000FB1D2E173F071CF45901A61AB70A9A01E5
:1032C0002C0D3D1D821793071CF46C01C41AD50AFE
:1032D0000FEF040F0C0D2FEF260F2A0DCE010E94C9
:1032E000EF1880919103909192030E944C12EAA1F1
:1032F000FBA190818CA5892B8083E8A1F9A1908105
:103300008BA58095892380831C141D049CF4850162
:10331000101611065CF46F2DCE010E9435166E2D2D
:10332000CE010E94351601501109F2CF81E0C81A72
:10333000D108EACFE8A1F9A190818BA5892B8083E0
:10334000DF91CF911F910F91FF90EF90DF90CF9081
:10335000BF90AF900895DF92EF92FF920F931F936B
:10336000CF93DF93EC017901D02E8885998568177A
:103370007907ECF52A853B8542175307C4F59B0175
:103380002E0D3F1D821793071CF47C01E61AF70AE5
:103390002FEF260F2E0D042FCE010E94EF188091E3
:1033A0009103909192030E944C12EAA1FBA190819B
:1033B0008CA5892B8083E8A1F9A190818BA58095AC
:1033C00089238083E114F10461F0612FCE010E9412
:1033D00035166D2DCE010E94351681E0E81AF108F0
:1033E000F1CFE8A1F9A190818BA5892B8083DF9192
:1033F000CF911F910F91FF90EF90DF900895DF9292
:10340000EF92FF920F931F93CF93DF93EC0179011B
:10341000D02E8885998568177907ECF58A859B8574
:1034200048175907C4F59A012E0D3F1D82179307BF
:103430001CF47C01E41AF50A0FEF040F0E0D262F81
:10344000CE010E94EF1880919103909192030E9407
:103450004C12EAA1FBA190818CA5892B8083E8A165
:10346000F9A190818BA5809589238083E114F104D3
:1034700061F0612FCE010E9435166D2DCE010E94A4
:10348000351681E0E81AF108F1CFE8A1F9A19081A1
:103490008BA5892B8083DF91CF911F910F91FF9096
:1034A000EF90DF900895EF92FF920F931F93CF93C9
:1034B000DF931F92CDB7DEB77C01CB01122F77FDD2
:1034C00049C0D70118966D917C9119978617970777
:1034D0000CF040C057FD3EC01A966D917C911B9731
:1034E00046175707BCF501E0040F21E0280F682FAD
:1034F000C70139830E94EF18809191039091920344
:103500000E944C12D7019296ED91FC919397908175
:103510009C968C919C97892B80839096ED91FC9141
:10352000919790819B968C91809589238083398196
:10353000632FC7010E943516612FC7010E943516FF
:10354000D7019096ED91FC91919790819B968C91EB
:10355000892B80830F90DF91CF911F910F91FF9066
:10356000EF900895CF93DF93EEEFF6E08491E5E3DB
:10357000F7E0D491E1E2F7E0C491CC2391F081111E
:103580000E942217EC2FF0E0EE0FFF1FE85FF84FCC
:10359000A591B491EC91ED2381E090E021F480E0DD
:1035A00002C080E090E0DF91CF9108954091F20257
:1035B0005091F3024115510519F480EB93E001C0DD
:1035C000CA01DC01ED91FC910480F581E02DB3E0AE
:1035D000403B5B0719F021E0452B09F420E04CE962
:1035E00053E069ED73E00994CF92DF92EF92FF927E
:1035F0000F931F93CF93DF93EC012196FC0114915D
:10360000112309F437C0FE0164918BEF93E00E940F
:10361000AF186E01F2E0CF0ED11CFE013196C491BD
:103620000C2F0078CF777601DC2FD15050F0F701C6
:1036300064918BEF93E00E947718FFEFEF1AFF0A77
:10364000F4CFC6018C0F911DEC01002389F07C01A1
:103650009FEFE91AF90AFE01649170E06F3F71056E
:1036600011F464EF71E080E090E00E94B717E70189
:103670001150C6CFDF91CF911F910F91FF90EF9026
:10368000DF90CF900895AF92BF92CF92DF92EF92EA
:10369000FF920F931F93CF93DF931F92CDB7DEB7A7
:1036A0005C01D62EE72EFC018585811105C0C50180
:1036B0000E94F108811106C0F50113861586148653
:1036C00080E065C040E060EFC5010E94820801E033
:1036D000F12CC12C11E0C5010E942F08682FC501F3
:1036E00069830E942F086981613019F48130B9F42F
:1036F00033C04F2D50E068131BC0F50183851817A8
:1037000030F4E40FF51F8381802349F402C01817B9
:1037100031F060E0193058F4F501148708C0F50164
:10372000EF0DF11D8381802B838361E009C0C12EE1
:10373000F501E40FF51F9381802F80958923838302
:10374000C5010E9453081F5F000F11F4F39401E0BC
:10375000F7E0FF1508F0BFCF113408F4ADCFF50145
:10376000C386C11002C081E08587F501838188236B
:1037700009F4A2CFD5011396ED2DFE2D9501255FFD
:103780003F4F8D918193A217B307D9F781E00F9036
:10379000DF91CF911F910F91FF90EF90DF90CF902D
:1037A000BF90AF900895AF92BF92CF92DF92EF9209
:1037B000FF920F931F93CF93DF93EC018B018091C6
:1037C000CB039091CC030E94F1088823A1F1BE01A4
:1037D0008091CB039091CC030E94C40840E06EEB33
:1037E0008091CB039091CC030E948208E80168018C
:1037F00089E0C80ED11CA090CB03B090CC0388E028
:10380000E82EF12C01E010E0C5010E942F08811183
:10381000102B000F81E0E81AF108B1F71993CC15CD
:10382000DD0549F78091CB039091CC030E94F1080C
:1038300091E0813009F090E0892FDF91CF911F91C5
:103840000F91FF90EF90DF90CF90BF90AF900895D1
:10385000CF93DF93CDB7DEB729970FB6F894DEBFCD
:103860000FBECDBFFC012081203119F1BE016F5F79
:103870007F4F0E94D31B882379F068E0CE01019628
:103880000E9422089985891307C008C0803458F027
:103890008F3569F08F3769F080E00CC08D818F33F0
:1038A000A9F78AE007C08F31B9F789E003C08BE040
:1038B00001C08CE029960FB6F894DEBF0FBECDBFD5
:1038C000DF91CF910895CF93DF93BC018BEF93E00D
:1038D0000E946C16EC0164E172E08BEF93E00E94B1
:1038E0006C168C0F9D1FDF91CF9108952F923F9200
:1038F0004F925F926F927F928F929F92AF92BF9200
:10390000CF92DF92EF92FF920F931F93CF93DF93AB
:1039100000D000D0CDB7DEB75C01E091FB03F091A1
:10392000FC030084F185E02D8C012BE030E043E0C6
:1039300050E066E970E08BEF93E00995CC24C394E6
:10394000D12CE12CF12C85E090E09C838B8336EF29
:10395000632E77247A944CEF842E99249A94EFEF77
:10396000EE1AFE0AF2E0CF0ED11C8C0C9D1C4B808F
:103970005C80440C551C8FEF481A580AE091FB03F9
:10398000F091FC03B7016A567F4F0084F185E02D6A
:103990008501920198E0292E312CAB81BC812A1A35
:1039A0003B0AA1018BEF93E00995E8E0F0E0EE1906
:1039B000FF09FA83E983E091FB03F091FC030084A3
:1039C000F185E02D960149815A816B817C816A568F
:1039D0007F4F8BEF93E00995E091FB03F091FC039F
:1039E00066E970E06E197F090084F185E02D92018F
:1039F000A1018BEF93E00995E091FB03F091FC03AB
:103A00000084F185E02D960149815A8166E970E0D4
:103A10008B819C81681B790B8BEF93E00995AB81BF
:103A2000BC81EA16FB066CF497FC99CFAB81BC8194
:103A30001197BC83AB83B2E06B0E711C860C971C94
:103A40008ECF0F900F900F900F90DF91CF911F911D
:103A50000F91FF90EF90DF90CF90BF90AF909F902D
:103A60008F907F906F905F904F903F902F90089530
:103A7000CF93DF93CDB7DEB761970FB6F894DEBF73
:103A80000FBECDBFE091CB03F091CC03138615861A
:103A90001486DF011B96CF0103961E92A817B90763
:103AA000E1F7BE01665F7F4FCF010E94431B882371
:103AB00041F067E0CE010A960E9422089989891791
:103AC00029F060E070E08EEF92EC53C0BE016F5FB2
:103AD0007F4FCE010A960E94D31B882309F446C06B
:103AE00068E0CE0101960E942208998589133EC0A4
:103AF000698188E0689FB00111248A81282F30E015
:103B0000322F2227330F330F330F262B372B8A8583
:103B1000803151F5688570E08F81AB01481B5109F8
:103B2000CA019695982F8827979587950E94F12826
:103B300060517109207F53E0220F331F5A95E1F73E
:103B4000620F731F613854EE75070CF4BACF072E5D
:103B5000000C880B990B0E94FE2920E030E040E029
:103B60005CE30E945D2A05C0B901ECCF60E874EE09
:103B7000E9CF61960FB6F894DEBF0FBECDBFDF91DF
:103B8000CF910895CF93DF93CDB7DEB761970FB68E
:103B9000F894DEBF0FBECDBF789484B5826084BD3B
:103BA00084B5816084BD85B5826085BD85B5816041
:103BB00085BD80916E00816080936E0010928100BF
:103BC000809181008260809381008091810081607A
:103BD000809381008091800081608093800080913B
:103BE000B10084608093B1008091B00081608093C7
:103BF000B00080917A00846080937A0080917A008E
:103C0000826080937A0080917A00816080937A004C
:103C100080917A00806880937A001092C100E091D0
:103C20000403F091050382E08083E0910003F091AA
:103C300001031082E0910203F09103038FEC808373
:103C400010920C03E0910803F091090386E0808351
:103C5000E0910603F0910703808180618083E09109
:103C60000603F0910703808188608083E09106035A
:103C7000F0910703808180688083E0910603F091D2
:103C8000070380818F7D808361E085E00E947B1740
:103C900061E089E00E947B1762E08FE00E947B1761
:103CA0000E942709E091CB03F091CC03138615867F
:103CB0001486DF011B9633961E92AE17BF07E1F7FD
:103CC0001092CA0311E0BE01665F7F4F8091CB0363
:103CD0009091CC030E94431B882309F451C067E0F4
:103CE000CE010A960E94220899898913ECCF80910F
:103CF000C603811127C08091CB039091CC030E9411
:103D0000F108BE01665F7F4F8091CB039091CC0399
:103D10000E94C40840E064EB8091CB039091CC03F7
:103D20000E9482088091CB039091CC030E942F08BF
:103D3000082F8091CB039091CC030E94F1080023BF
:103D400009F483C5BE016F5F7F4FCE010A960E94C2
:103D5000D31B0091C703CE010A960E94281C80172E
:103D600018F48091C70304C0CE010A960E94281C53
:103D70008093C7038091CA038F5F8093CA03A3CF48
:103D8000109229041092280461E0809120040E947E
:103D90007B1761E080911F040E947B1720911F0414
:103DA00030E0F901EE5EF84FE491F0E0EE0FFF1F16
:103DB000E859FF4F8591949190931C0480931B04C4
:103DC0004091200450E0FA01EE5EF84F8491E82F14
:103DD000F0E0EE0FFF1FE859FF4F8591949190930B
:103DE0001E0480931D04F901EA5DF84FE491E0930D
:103DF0002604FA01EA5DF84FE491E09327048091EC
:103E00001604882349F00E94270980E580939103D6
:103E100081E08093920349C061E0809123040E9475
:103E20007B1761E0809122040E947B17809123041C
:103E300090E0FC01EE5EF84FE491F0E0EE0FFF1F22
:103E4000E859FF4FA591B491B0931A04A0931904B7
:103E50002091220430E0F901EE5EF84FE491F0E0A9
:103E6000EE0FFF1FE859FF4F4591549150931804EE
:103E700040931704FC01EA5DF84F84918093250478
:103E8000F901EA5DF84FE491E09324049C91E82F56
:103E9000E095E923EC93E0911704F09118049081E8
:103EA00080912404809589238083E0911B04F09104
:103EB0001C049081809126048095892380838091C1
:103EC0002104882321F161E00E947B1761E0809149
:103ED00021040E944B1764EF71E080E090E00E94A3
:103EE000B71760E0809121040E944B1764EF71E0E6
:103EF00080E090E00E94B71761E0809121040E9469
:103F00004B1764EF71E080E090E00E94B7178AEAF7
:103F100090E00E94F41A8DE990E00E94F41A82E782
:103F200090E00E94F41A66E38BEF93E00E94AF18D2
:103F300060EC8BEF93E00E94771882E08093150489
:103F400066E38BEF93E00E94AF1881E0809310044A
:103F500080911504823011F460EA01C068EA8BEFA9
:103F600093E00E94771880911504813019F480E85D
:103F700090E002C080EA90E09093040480930304F0
:103F800080E890E090930604809305041092110459
:103F900080E098EF90930C0480930B0410920E0431
:103FA00010920D0482E080930F048091E5039091BC
:103FB000E603880F991F9093E6038093E5038091B1
:103FC000E7039091E803880F991F9093E80380938B
:103FD000E7038DE090E09093E2038093E10387E0B4
:103FE00090E09093E4038093E3038FEE9BE790933C
:103FF000F0038093EF0360E070E08BEF93E00E94AA
:10400000171686E490E00E941B2B8093290180E51F
:1040100090E00E941B2B80930201813011F40E94DA
:10402000850C80910201823011F40E94570C80911E
:104030000201833011F40E94290C3CE3232E312C21
:1040400040EE842E47E0942E80912801811114C007
:104050000E94B21A892B09F04CC060E971E080E03F
:1040600090E00E94B7170E94B21A892B89F501E0EF
:104070000093030160E02FC0409060025090610205
:10408000609062027090630260912B0170E08091F9
:104090002A01681B7109072E000C880B990B0E94DE
:1040A000FE299B01AC01C301B2010E94F72987FDE3
:1040B00016C060912B0170E080E090E00E94FE2924
:1040C0009B01AC01C301B2010E94DD2987FD0DC037
:1040D0001092030161E084E00E944B170AC00E9425
:1040E000B21A892B09F4B4C3E4CF0E94B21A019723
:1040F00079F380910301882399F02091270130E022
:10410000A8EEB3E00E943C2B60936E0270936F02A6
:1041100080937002909371022091260130E014C0C8
:104120002091250130E0A8EEB3E00E943C2B609383
:104130006E0270936F0280937002909371022091CF
:10414000240130E0A0E6BAEE0E943C2B60936A02A4
:1041500070936B0280936C0290936D0280915F026A
:10416000811117C00E94580B8A97B1F411E0109387
:104170005F0280E098EF90930C0480930B04109200
:104180000E0410920D041092DE031092DD030E94C3
:10419000D61A0E94D61A37C280915E02811124C0BD
:1041A00060E070E08BEF93E00E941716E12C28EF9F
:1041B000F22E01E110E020EA30E041E150E060E061
:1041C00070E08BEF93E00E94981102E110E020EA8A
:1041D00030E042E150E060E070E08BEF93E00E945D
:1041E000981121E020935E0280910301882319F049
:1041F00080E098EF02C080EE97E00E94761C8091EC
:104200000A01882309F46DC010920A0110925F021E
:104210008FEF9FEF90930E0480930D0490930C0406
:1042200080930B04109208041092070410920A0461
:10423000109209046BE072E08BEF93E00E946C1621
:104240004091020150E060E070E02AE08BEF93E0E3
:104250000E94811664E172E08BEF93E00E946C167D
:1042600090920E0480920D0490920C0480920B04A4
:10427000109208041092070408E210E010930A0458
:104280000093090467E172E08BEF93E00E946C16E3
:1042900040912B0150E060E070E02AE08BEF93E06A
:1042A0000E94811664E172E08BEF93E00E946C162D
:1042B000109208041092070430920A042092090414
:1042C00062E272E08BEF93E00E946C16809128010D
:1042D000882319F08EE292E002C081E392E00E940E
:1042E000631C0E94F11728EE33E040E050E00E948A
:1042F0000529C901B1010E94F1285B01C90160E1F2
:104300007EE00E94F1283B0114EC1603C001179FC8
:10431000900D1124A80EB91E809100019091010109
:10432000A816B90629F480910901882309F47BC0F5
:10433000B0920101A09200012FE138EF30930E04FA
:1043400020930D0430930C0420930B04E12CF12CEA
:1043500004E110E020E830E040E550E060E070E08B
:104360008BEF93E00E943D1910920804109207040D
:1043700080E590E090930A048093090464E372E07E
:104380008BEF93E00E946C166301072C000CEE0883
:10439000FF0877FE0EC06DE28BEF93E00E9465167A
:1043A00044275527BA014C195D096E097F092AE097
:1043B00003C02AE0B701A6018BEF93E00E948116AB
:1043C0006CE272E08BEF93E00E946C1665010B2C9F
:1043D000000CEE08FF083AE0A316B104ACF460E369
:1043E0008BEF93E00E946516B7FE0EC06DE28BEF77
:1043F00093E00E94651644275527BA014C195D09C0
:104400006E097F092AE003C02AE0B701A6018BEFFD
:1044100093E00E94811664E172E08BEF93E00E94CA
:104420006C161092090180910801882309F4E7C0F5
:104430009FE1E92EF12C02E110E022E630E044E1B8
:1044400050E06CE370E08BEF93E00E943D19109216
:1044500008041092070484E190E090930A0480938A
:10446000090490920E0480920D0490920C048092A4
:104470000B046AE372E08BEF93E00E946C1680EE0F
:104480009FEF90930E0480930D0490930C048093FF
:104490000B04C0906002D0906102E0906202F09044
:1044A0006302A7019601C701B6010E94E229882391
:1044B00019F061E472E01AC026013701E89477F838
:1044C0002FEF3FEF4FE75FE7C301B2010E94E22900
:1044D000811111C02FEF3FEF4FE75FE7C301B2013A
:1044E0000E94F72918163CF465E472E08BEF93E024
:1044F0000E946C167EC02FEF3FEF4FE75FE4C701CD
:10450000B6010E94DD2918161CF469E472E0EECFB2
:104510002FEF3FEF4FE75FECC701B6010E94F7298D
:1045200087FDF3CF20E030E0A901C701B6010E946A
:10453000F72987FF09C06DE28BEF93E00E946516B3
:10454000F7FAF094F7F8F0942AE037ED43EA5BE3EA
:10455000C701B6010E9442296B017C010E94AE296D
:104560002B013C010E94FC299B01AC01C701B60153
:104570000E9441296B017C012AE0B301A2018BEF6B
:1045800093E00E9481166AE572E08BEF93E00E944F
:104590006C1620E030E040E251E4C701B6010E9411
:1045A0005D2A2B013C010E94AE296B01E12CF12C0C
:1045B0002AE0B701A6018BEF93E00E948116C701A4
:1045C000B6010E94FC299B01AC01C301B2010E940B
:1045D000412920E030E040E251E40E945D2A0E943F
:1045E000AE29AB0160E070E02AE08BEF93E00E941F
:1045F00081168DE492E00E94631C109208011092D3
:104600005D0210925C020E94F1174091230100911B
:1046100072021091730220917402309175022B0185
:104620003C01401A510A620A730A41111EC00091EE
:104630006E0210916F02209170023091710240164B
:1046400051066206730680F101E000932301609336
:10465000720270937302809374029093750261E00A
:1046600085E00E944B1761E01CC000916A02109126
:104670006B0220916C0230916D0240165106620669
:10468000730690F01092230160937202709373028C
:10469000809374029093750260E085E00E944B174E
:1046A00060E089E00E944B170E94F117AB01BC014A
:1046B0008091660290916702A0916802B0916902B0
:1046C0008A019B01081B190B2A0B3B0BD901C8015E
:1046D000883E9340A105B105A8F1809164029091B4
:1046E00065020196883522E092072CF490936502CA
:1046F0008093640212C01092650210926402EBE093
:10470000F1E0828193818193919331E0E132F3076B
:10471000C1F7109222011092210180915F0288233B
:1047200049F080915C0290915D02019690935D0248
:1047300080935C0240936602509367026093680224
:10474000709369028091290190E020915C02309180
:104750005D0228173907ACF060E070E08BEF93E062
:104760000E94171610925F0210925D0210925C0276
:1047700041E040930A0140930901409308011092DF
:104780005E021092C8038091CB039091CC030E94EB
:10479000F10840E06CEC8091CB039091CC030E9437
:1047A00082084091C60364E48091CB039091CC03CE
:1047B0000E9482088091C8038823A9F0E091C70372
:1047C000E950E33040F4F0E0EE0FFF1FE25DFE4FF2
:1047D0006081718102C06EEE72E0072E000C880BC2
:1047E000990B0E94B7170E94381D20E030E048EC7A
:1047F00052EC0E94DD2918162CF50E94381D2B0161
:104800003C01609360027093610280936202909316
:1048100063029B01AC0160910401709105018091DC
:104820000601909107010E94F729882359F04092D0
:10483000040150920501609206017092070181E027
:10484000809308010E94E815FFCB1093C6037ACA33
:1048500091E09093030160E084E00E944B1729CC23
:104860008F929F92AF92BF92CF92DF92EF92FF9280
:104870000F931F93CF93DF931092F7021092F602DB
:1048800088EE93E0A0E0B0E08093F8029093F90204
:10489000A093FA02B093FB022DE531E03093F502CC
:1048A0002093F40225EC30E03093010320930003C1
:1048B00024EC30E0309303032093020320EC30E03B
:1048C000309305032093040321EC30E03093070379
:1048D0002093060322EC30E0309309032093080371
:1048E00026EC30E030930B0320930A0310920D0363
:1048F00010920E0310920F031092100320E52093E4
:1049000091031092920323E032E0309394032093BA
:10491000930323E037E030939603209395032AE432
:104920003BE0309398032093970321E02093990371
:1049300010922D0410922C0480932E0490932F0437
:10494000A0933004B09331048DE691E090932B0452
:1049500080932A0484E690E090939B0380939A03CB
:104960001092FE031092FD0340E850E050930004C3
:104970004093FF0380EA90E0909302048093010447
:104980005093040440930304909306048093050419
:1049900010921004109208041092070410920A0456
:1049A0001092090420930F048FEF9FEF90930E0451
:1049B00080930D0490930C0480930B0420931104B6
:1049C0001092120410921404109213044BEB51E055
:1049D0005093FC034093FB033AE030931F0438E00C
:1049E0003093200437E03093210420931604109272
:1049F0002304109222041092DC031092DB03109225
:104A0000DE031092DD031092E0031092DF0325E134
:104A100030E03093E2032093E10321E130E0309372
:104A2000E4032093E30326E030E03093E603209391
:104A3000E50329E030E03093E8032093E703909307
:104A4000EA038093E9039093EC038093EB0325EA58
:104A500031E03093DA032093D9032FE130E0309333
:104A6000EE032093ED031092F0031092EF03909366
:104A7000F2038093F10389E59EEC9093F403809315
:104A8000F3031092F6031092F5031092F8031092BC
:104A9000F7038BEF93E09093FA038093F90360E0C0
:104AA0008EE00E947B17E4E3F7E0E491E0931F06B9
:104AB000E0E2F7E0E491F0E0EE0FFF1FE85FF84F6F
:104AC00085919491909321068093200610922A0656
:104AD00010922C0610922B06EAE2F6E0129286E083
:104AE000E232F807D9F780EC94E09093D8038093F2
:104AF000D7038FE196E09093CC038093CB03109281
:104B0000CA031092C60389E08093C703C1E0C09333
:104B1000C803C093C90380E798E090931A06809376
:104B200019068DE2E82E8AE0F82EF0921C06E0923B
:104B30001B06C0931D0697EFC92E91E0D92ED09287
:104B40001806C0921706DCE3D0931E068DE698E0A7
:104B50009093120680931106F0921406E0921306C9
:104B6000C0931506D0921006C0920F0681E4809380
:104B700016068AE698E090930A0680930906F0925A
:104B80000C06E0920B06C0930D06D0920806C09268
:104B9000070686E480930E0687E698E09093020667
:104BA00080930106F0920406E0920306C093050686
:104BB000D0920006C092FF058BE48093060684E63F
:104BC00098E09093FA058093F905F092FC05E09245
:104BD000FB05C093FD05D092F805C092F70580E56E
:104BE0008093FE050BE211E025E538E045E050E05A
:104BF0006FE578E08FED95E00E94B10983E598E0DC
:104C00009093DA058093D905F092DC05E092DB05FC
:104C1000C093DD05D092D805C092D70582E080937D
:104C2000DE0581E598E09093D2058093D105F0925E
:104C3000D405E092D305C093D505D092D005C0929B
:104C4000CF0584E08093D6058FE498E09093CA0561
:104C50008093C905F092CC05E092CB05C093CD05B9
:104C6000D092C805C092C70586E08093CE050AE2BF
:104C700011E022E438E043E050E068E478E08FEAB5
:104C800095E00E94B1098FE398E09093AA05809384
:104C9000A905F092AC05E092AB05C093AD05D092AA
:104CA000A805C092A705D093AE058CE398E0909339
:104CB000A2058093A105F092A405E092A305C093FC
:104CC000A505D092A005C0929F052EE1B22EB0920C
:104CD000A60589E398E090939A0580939905F09250
:104CE0009C05E0929B05C0939D05D0929805C092CB
:104CF00097058FE080939E0509E211E028E238E0F5
:104D000043E050E06EE278E08FE795E00E94B10961
:104D100085E298E090937A0580937905F0927C057E
:104D2000E0927B05C0937D058BEE91E09093780532
:104D300080937705C0937E0522E238E030937205B8
:104D400020937105F0927405E0927305C093750588
:104D50009093700580936F051092760567E178E077
:104D600087E595E00E94330E82E090E0909367051E
:104D70008093660583E198E090936B0580936A05C4
:104D800010926C058DE891E090935805809357053B
:104D900088E291E090936E0580936D0587E595E03C
:104DA0000E945D0989E991E0909358058093570529
:104DB00087E595E00E945D096CE078E08AE395E084
:104DC0000E94330E0FED11E010933B0500933A055E
:104DD00087E291E090934A05809349058AE098E044
:104DE00090934D0580934C05C0934E0534E1D32E2E
:104DF000D0924F05C0935005C093510510925205B3
:104E0000F0925405E09253051092550580912701C8
:104E10008093560564E078E08DE195E00E94330EC2
:104E200010931E0500931D0586E291E090932D05D9
:104E300080932C0582E098E09093300580932F05B5
:104E4000C093310588EC80933205DAE0D0933305C6
:104E5000C093340510923505F0923705E09236057F
:104E60001092380580912601809339056BEF77E029
:104E700080E095E00E94330E109301050093000539
:104E800085E291E09093100580930F0589EF97E0FC
:104E90009093130580931205C0931405D0921505C5
:104EA000C0931605C093170510921805F0921A05C5
:104EB000E092190510921B058091250180931C0535
:104EC00063EF77E083EE94E00E94330E1093E404E6
:104ED0000093E30484E291E09093F3048093F2045E
:104EE00081EF97E09093F6048093F504C093F70464
:104EF000B092F804D093F904C093FA041092FB0422
:104F0000F092FD04E092FC041092FE0480912401D2
:104F10008093FF0468EE77E08DEC94E00E94330EFE
:104F200043EDC42E41E0D42ED092CE04C092CD04E5
:104F300054E0852E912C9092DD048092DC0480EE6A
:104F400097E09093E1048093E0041092E20403E080
:104F500012E01093C7040093C60487ED97E0909386
:104F6000C9048093C80485E89CE09093CB048093A7
:104F7000CA04C093CC041093C0040093BF048EEC09
:104F800097E09093C2048093C10487E59CE09093DE
:104F9000C4048093C304C093C5041093B904009360
:104FA000B80485EC97E09093BB048093BA0489E23F
:104FB0009CE09093BD048093BC04C093BE046CEB52
:104FC00077E082EA94E00E94330ED092A304C0926C
:104FD000A20463E0A62EB12CB092B204A092B10458
:104FE00086EB97E09093B6048093B5041092B704D3
:104FF00010939C0400939B048DEA97E090939E0489
:1050000080939D0487EF9BE09093A00480939F047E
:10501000C093A104109395040093940484EA97E04C
:10502000909397048093960485EC9BE09093990469
:1050300080939804C0939A0410938E0400938D0477
:105040008BE997E09093900480938F0483E99BE031
:105050009093920480939104C093930464E977E061
:1050600087E794E00E94330ED0927804C0927704D0
:10507000B0928704A09286048EE897E090938B0408
:1050800080938A0410928C0410937104009370042E
:1050900082E897E09093730480937204F092750411
:1050A000E0927404C093760410936A040093690438
:1050B00089E797E090936C0480936B04F0926E0400
:1050C000E0926D04C0936F046DE677E083E594E0B1
:1050D0000E94330ED0925404C092530485E090E0B5
:1050E000909363048093620483E697E0909367044F
:1050F000809366041092680467E577E08DE394E09E
:105100000E94330ED0923E04C0923D04B0924D04F2
:10511000A0924C0481E597E0909351048093500451
:105120001092520410933704009336048CE497E0F5
:10513000909339048093380481E29AE090933B0481
:1051400080933A04C0933C0462E477E080EB93E000
:105150000E94330ED092B103C092B0039092C0036C
:105160008092BF038AE397E09093C4038093C303C4
:105170001092C50310929F0310929E0388EE93E055
:10518000A0E0B0E08093A0039093A103A093A203BA
:10519000B093A3038DE791E090939D0380939C03CC
:1051A00088E59BE09093A9038093A8038FEF9FEF7E
:1051B0009093AB038093AA031092AC031092AD03BB
:1051C0001092AE031092AF03DF91CF911F910F9118
:1051D000FF90EF90DF90CF90BF90AF909F908F9017
:1051E000089597FB072E16F4009407D077FD09D099
:1051F0000E94272907FC05D03EF4909581959F4F8A
:105200000895709561957F4F0895A1E21A2EAA1B0B
:10521000BB1BFD010DC0AA1FBB1FEE1FFF1FA21766
:10522000B307E407F50720F0A21BB30BE40BF50B63
:10523000661F771F881F991F1A9469F760957095EC
:10524000809590959B01AC01BD01CF010895AA1BEB
:10525000BB1B51E107C0AA1FBB1FA617B70710F061
:10526000A61BB70B881F991F5A95A9F78095909593
:10527000BC01CD010895EE0FFF1F0590F491E02DC4
:1052800009945058BB27AA270E9459290C94E12A57
:105290000E94D32A38F00E94DA2A20F039F49F3F86
:1052A00019F426F40C94D02A0EF4E095E7FB0C9444
:1052B000CA2AE92F0E94F22A58F3BA176207730725
:1052C0008407950720F079F4A6F50C94142B0EF4BE
:1052D000E0950B2EBA2FA02D0B01B90190010C0106
:1052E000CA01A0011124FF27591B99F0593F50F41E
:1052F000503E68F11A16F040A22F232F342F442776
:10530000585FF3CF469537952795A795F04053956D
:10531000C9F77EF41F16BA0B620B730B840BBAF03D
:105320009150A1F0FF0FBB1F661F771F881FC2F7A8
:105330000EC0BA0F621F731F841F48F487957795BC
:105340006795B795F7959E3F08F0B0CF9395880F76
:1053500008F09927EE0F9795879508950E94FA2AED
:1053600088F09F5798F0B92F9927B751B0F0E1F026
:10537000660F771F881F991F1AF0BA95C9F714C0D6
:10538000B13091F00E94142BB1E008950C94142BCD
:10539000672F782F8827B85F39F0B93FCCF386950F
:1053A00077956795B395D9F73EF49095809570956C
:1053B00061957F4F8F4F9F4F08950E94392A08F4BF
:1053C0008FEF08950E94392A880B990B089581E088
:1053D00090E0F8940C944B2BFC018191861721F0FE
:1053E0008823D9F7992708953197CF0108950E940E
:1053F000392A08F481E00895E89409C097FB3EF447
:1054000090958095709561957F4F8F4F9F4F992311
:10541000A9F0F92F96E9BB279395F695879577958F
:105420006795B795F111F8CFFAF4BB0F11F460FF4F
:105430001BC06F5F7F4F8F4F9F4F16C0882311F0A7
:1054400096E911C0772321F09EE8872F762F05C0BB
:10545000662371F096E8862F70E060E02AF09A9556
:10546000660F771F881FDAF7880F9695879597F94B
:105470000895990F0008550FAA0BE0E8FEEF1616E5
:105480001706E807F907C0F012161306E407F50738
:1054900098F0621B730B840B950B39F40A2661F0AC
:1054A000232B242B252B21F408950A2609F4A1404F
:1054B000A6958FEF811D811D08950E94702A0C947E
:1054C000E12A0E94D32A38F00E94DA2A20F095239C
:1054D00011F00C94CA2A0C94D02A11240C94152B88
:1054E0000E94F22A70F3959FC1F3950F50E0551F6B
:1054F000629FF001729FBB27F00DB11D639FAA2729
:10550000F00DB11DAA1F649F6627B00DA11D661F77
:10551000829F2227B00DA11D621F739FB00DA11D98
:10552000621F839FA00D611D221F749F3327A00D52
:10553000611D231F849F600D211D822F762F6A2FEE
:1055400011249F5750409AF0F1F088234AF0EE0F53
:10555000FF1FBB1F661F771F881F91505040A9F780
:105560009E3F510580F00C94CA2A0C94152B5F3F86
:10557000E4F3983ED4F3869577956795B795F795BC
:10558000E7959F5FC1F7FE2B880F911D9695879534
:1055900097F9089597F99F6780E870E060E00895B3
:1055A0009FEF80EC089500240A941616170618063B
:1055B0000906089500240A94121613061406050617
:1055C0000895092E0394000C11F4882352F0BB0FA8
:1055D00040F4BF2B11F460FF04C06F5F7F4F8F4F0B
:1055E0009F4F089557FD9058440F551F59F05F3F46
:1055F00071F04795880F97FB991F61F09F3F79F0F5
:1056000087950895121613061406551FF2CF469576
:10561000F1DF08C0161617061806991FF1CF8695F8
:105620007105610508940895E894BB2766277727DC
:10563000CB0197F90895F999FECF92BD81BDF89AF3
:10564000992780B50895262FF999FECF1FBA92BDEC
:1056500081BD20BD0FB6F894FA9AF99A0FBE019653
:1056600008950E943C2BA59F900DB49F900DA49F80
:10567000800D911D11240895A29FB001B39FC00118
:10568000A39F700D811D1124911DB29F700D811D6E
:0A5690001124911D0895F894FFCF36
:10569A00010001010000A040010101010002000314
:1056AA00000400050006000700080009000A000BB4
:1056BA00000C00011E023C02013C024650465E00FC
:1056CA00BC0077012A000000004A06C1041C1348E6
:1056DA000B000000004A06C1043205480B00000016
:1056EA0000220E540B4E0B4C0B000000007F15FBE2
:1056FA0014481526153A15C61500000000AF049B7C
:10570A0004940491048E048D04000000003E0BFBF7
:10571A0014DF0D9A0D420B410B000000008A09DFCD
:10572A00041C13480B000000008A09DF04BE054868
:10573A000B000000009A0AFB14010BC40A570B560F
:10574A000BA60A2E0AB30C00000000F20FFB14533A
:10575A001A9811FF19AB1949113D191716E81800C3
:10576A00000000220E540B1C13480B00000000F22C
:10577A0007FA0471064C0B00000000220E540B4E6F
:10578A000B4C0B00000000220E540B4E0B4C0B006E
:10579A00000000220E540B4E0B4C0B50726F6669C0
:1057AA006C3A20000D0A005365742074656D703AD6
:1057BA002000546865726D6F737461743A004245D3
:1057CA00004B490052756E3A200054454D503A201C
:1057DA00006E616E00696E66006F76660020430097
:0C57EA00303132333435363738392E0078
:00000001FF
